:020000040800F2
:1000000000500020951B0008311B0008331B00081E
:10001000351B0008371B0008391B000800000000D2
:100020000000000000000000000000003B1B000872
:100030003D1B0008000000003F1B0008411B00089A
:10004000DD1B0008DD1B0008DD1B0008DD1B0008B0
:10005000DD1B0008DD1B0008DD1B0008DD1B0008A0
:10006000DD1B0008DD1B0008DD1B0008DD1B000890
:10007000DD1B0008DD1B0008DD1B0008DD1B000880
:10008000DD1B0008DD1B0008DD1B0008DD1B000870
:10009000DD1B0008DD1B0008DD1B0008DD1B000860
:1000A000DD1B0008DD1B0008DD1B0008DD1B000850
:1000B000DD1B0008DD1B0008DD1B0008DD1B000840
:1000C000DD1B0008DD1B0008DD1B0008DD1B000830
:1000D000DD1B0008DD1B0008DD1B0008DD1B000820
:1000E000DD1B0008DD1B0008DD1B00080000000010
:1000F0000000000000000000000000000000000000
:0C01000000000000000000005FF808F1A3
:10010C0010B5054C237833B9044B13B10448AFF345
:10011C0000800123237010BD24000020000000008B
:10012C00381C000808B5034B1BB103490348AFF357
:10013C00008008BD0000000028000020381C0008CA
:10014C0010B504460E4B18784FF47A73B3FBF0F3EA
:10015C000C4A1068B0FBF3F000F094F868B90F2C5F
:10016C0001D901200AE0002221464FF0FF3000F0B7
:10017C0055F8034B5C60002000E0012010BD00BF6F
:10018C00000000202000002008B5074A136843F047
:10019C0010031360032000F02FF80020FFF7D0FFAE
:1001AC0001F06CFC002008BD00200240034A1168DD
:1001BC00034B1B780B441360704700BF48040020AE
:1001CC0000000020014B1868704700BF4804002055
:1001DC0038B50446FFF7F6FF0546B4F1FF3F02D0F1
:1001EC00044B1B781C44FFF7EDFF401BA042FAD3D5
:1001FC0038BD00BF00000020074AD36823F4E06339
:10020C001B041B0C000200F4E060184340F0BF60BC
:10021C0040F40030D060704700ED00E030B4174B74
:10022C00DB68C3F30223C3F10704042C28BF0424A6
:10023C001D1D062D18D9033B4FF0FF3505FA04F4AC
:10024C0021EA0401994005FA03F322EA0303194356
:10025C0000280BDB0901C9B200F1604000F56140D8
:10026C0080F8001330BC70470023E5E700F00F0066
:10027C000901C9B2024B1954F4E700BF00ED00E0CC
:10028C0014ED00E00138B0F1807F0AD2064B5860C3
:10029C00064AF02182F823100020986007221A6089
:1002AC0070470120704700BF10E000E000ED00E057
:1002BC00F0B482B000263246A2E0002D5AD0012DB7
:1002CC0000D1CE68FF2B69D88446FF2B69D89500E6
:1002DC00DCF800400F27AF4024EA070406FA05F5C6
:1002EC002C43CCF800404C6814F0805F00F0878001
:1002FC005F4CA56945F00105A561A46904F00104F2
:10030C000194019C9508AF1C5A4C54F8274002F0FC
:10031C000307BF004FF00F0C0CFA07FC24EA0C0C7F
:10032C00554CA04243D004F58064A04200F081807B
:10033C0004F58064A0427ED004F58064A04234D0E1
:10034C00042435E04D4FBD4214D00BD94C4FBD4267
:10035C0010D007F58037BD420CD0A7F58017BD42F1
:10036C00B0D107E0A7F58017BD4203D007F5803761
:10037C00BD42A7D18D687DB1012D08D044610826FE
:10038C00A0E7CE6808369DE7CE680C369AE7046184
:10039C00082697E7002695E7042693E700F1040C5E
:1003AC0093E7A2F10805AD0092E7032400E00024D6
:1003BC00BC4044EA0C0402352E4F47F825404C68EB
:1003CC0014F4803F39D02F4D2C681C432C604C68A2
:1003DC0014F4003F37D02B4D6C681C436C604C6898
:1003EC0014F4801F35D0274DAC681C43AC604C68AE
:1003FC0014F4001F33D0234DEC682343EB6001321F
:10040C000B6833FA02F430D00124944023409C4210
:10041C00F5D14D68122DB7D094D8022DB1D07FF6FE
:10042C004CAF032DB6D0112D7FF44CAFCE680436F3
:10043C0048E70124BCE70224BAE7124D2C6824EAF1
:10044C0003042C60C3E70F4D6C6824EA03046C6052
:10045C00C5E70C4DAC6824EA0304AC60C7E7094D52
:10046C00EC6824EA0303EB60C9E702B0F0BC704708
:10047C000010024000000140000801400000211063
:10048C00000031100004014003685A6912F4806FB7
:10049C0011D06FF480625A6100230363202280F82C
:1004AC003D2080F83E30026C42F00402026480F879
:1004BC003C300120704700207047F8B506460C46CA
:1004CC0017461D4622E0FFF77DFE069BC01AA84288
:1004DC0000D8DDB900233363202286F83D2086F84E
:1004EC003E30326C42F02002326486F83C300120FF
:1004FC001AE033685B6924EA03039BB2B3FA83F313
:10050C005B099F420FD1B5F1FF3FDCD1C4F3074328
:10051C00012BEED033689B6924EA03039BB2B3FA38
:10052C0083F35B09EDE70020F8BDF8B504460D46F2
:10053C0016461F463CE01A6842F400721A602368A3
:10054C006FF480625A6100232363202284F83D20DB
:10055C0084F83E30226C42F00402226484F83C3071
:10056C00012033E0FFF72EFEC01BB04200D8FEB9CD
:10057C0000232363202284F83D2084F83E30226C33
:10058C0042F02002226484F83C3001201EE02368F3
:10059C005B6925EA03039BB2003318BF0123A3B1A7
:1005AC0023685A6912F4806FC5D1B6F1FF3FD9D1D7
:1005BC00C5F30743012BEAD023689B6925EA0303A3
:1005CC009BB2003318BF0123E9E70020F8BD0000FF
:1005DC00F0B583B004460F4615461E46C36A082B79
:1005EC000DD0012B0BD013F5803F08D0036B122BD1
:1005FC000AD10268136843F48073136004E0226824
:10060C00136843F48073136000962B4600224FF05E
:10061C0001112046FFF751FF18BB2369B3F5804F3A
:10062C000DD1236807F0FE071F6133462A46104997
:10063C002046FFF77AFF0346A0B1012312E0FB111D
:10064C00226803F0060343F0F003136133462A4695
:10065C0008492046FFF769FF38B92368FFB21F61CC
:10066C00E3E70123184603B0F0BD0123FAE700BF0E
:10067C00020001000800010070B504460D46164644
:10068C0023685B6913F0800F1CD12046FFF7FCFE3A
:10069C00D0B9B5F1FF3FF3D0FFF794FD801BA84212
:1006AC0001D8002DECD100232363202284F83D20B7
:1006BC0084F83E30226C42F02002226484F83C30F4
:1006CC00012000E0002070BD0120FCE770B504465D
:1006DC000D46164623685B6913F0040F1CD12046A7
:1006EC00FFF7D2FED0B9B5F1FF3FF3D0FFF76AFDAB
:1006FC00801BA84201D8002DECD1002323632022BB
:10070C0084F83D2084F83E30226C42F020022264B2
:10071C0084F83C30012000E0002070BD0120FCE793
:10072C00002800F0BE80F8B5044690F83D30002B50
:10073C006BD0242384F83D302268136823F0010326
:10074C00136000F049FD6268584B9A4262D8584BCE
:10075C0098428CBF00230123002B40F0A480554B02
:10076C00A3FB00239B0C21684A6822F03F021A432A
:10077C004A6025682A6A22F03F0266684B498E421D
:10078C004ED8013313432B622568E96921F44F419C
:10079C0021F0FF016368454A93424BD801385B0056
:1007AC00B0FBF3F30133C3F30B03042B38BF042367
:1007BC000B43EB6121680B6823F0C003E269206AEC
:1007CC00024313430B6021688B6823F4034323F02B
:1007DC00FF032269E068024313438B602168CB68F6
:1007EC0023F0FF036269A06902431343CB602268C4
:1007FC00136843F00103136000202064202384F865
:10080C003D30206384F83E00F8BD80F83C3001F0A8
:10081C0057F98EE7284B98428CBF002301239BE7A6
:10082C004FF4967101FB03F32449A1FB03139B09BD
:10083C000133A7E7A268BAB9461E03EB4307B6FB20
:10084C00F7F60136C6F30B06B6FA86F6760936BB12
:10085C00C2B9013803EB4303B0FBF3F30133C3F329
:10086C000B0242F40043A3E7461E03EB830707EB9E
:10087C008707B6FBF7F60136C6F30B06B6FA86F613
:10088C007609E4E7013803EB830303EB8303B0FB46
:10089C00F3F20132C2F30B0242F4404388E7012326
:1008AC0086E7012070470120AEE700BFA08601005B
:1008BC007F841E0083DE1B43FF083D00D34D621076
:1008CC002DE9F04184B004460E4690461F46FFF7D2
:1008DC0079FC94F83D30DBB2202B04D00226304654
:1008EC0004B0BDE8F08105460090192301224F4960
:1008FC002046FFF7E2FD002840F0918094F83C3050
:10090C00012B00F08E80012384F83C3023681A6898
:10091C0012F0010F03D11A6842F001021A6022682A
:10092C00136823F400631360212384F83D301023F3
:10093C0084F83E3000232364C4F824806785638DDB
:10094C0023853B4BE3622B460A9A31462046FFF740
:10095C003FFE0646002866D10023039323685A699C
:10096C0003929B690393039B12E0236C042B01D02D
:10097C000126B4E72268136843F400731360012660
:10098C00ADE72A460A992046FFF7A0FE00282CD195
:10099C00238D002B35D02A460A992046FFF76CFE92
:1009AC000028E2D1626A236812781A61616A4B1CD2
:1009BC006362638D013B9BB26385238D013B9BB2CC
:1009CC0023852268506910F0040FDAD0002BD8D0A0
:1009DC004B781361636A01336362638D013B9BB295
:1009EC006385238D013B2385CBE7236C042B01D03E
:1009FC00012674E72268136843F400731360012620
:100A0C006DE72268136843F400731360202384F8A5
:100A1C003D30002384F83E3084F83C305FE70226FA
:100A2C005DE702265BE7012659E700BF02001000D4
:100A3C000000FFFF2DE9F04385B00446884691463F
:100A4C001D46FFF7BFFB94F83D30DBB2202B04D0E2
:100A5C000223184605B0BDE8F08306460090192322
:100A6C00012254492046FFF728FD002840F09780CA
:100A7C0094F83C30012B00F09480012384F83C3036
:100A8C0023681A6812F0010F03D11A6842F00102B0
:100A9C001A602268136823F400631360242384F81B
:100AAC003D3000232364A3F58033E362012734E057
:100ABC00A02384F83D3023685A69C2F34002596977
:100ACC00C1F3802194F83D30DBB2A02B09D042B9A0
:100ADC0039B9FFF777FB801BA842E9D8002DEAD182
:100AEC00E6E7202384F83D3023685A6912F0020FA0
:100AFC0031D11A6842F400721A6023686FF4806274
:100B0C005A610096192301222A492046FFF7D5FC89
:100B1C0000284CD101374F4539D22268136843F471
:100B2C008073136000962B4600224FF00111204673
:100B3C00FFF7C3FC002836D1236808F0FE021A61C7
:100B4C00FFF740FB064623685A69C2F34002596915
:100B5C00C1F38021B6E71A6842F400721A600023D0
:100B6C00039323685A6903929B690393039B009632
:100B7C00192301220F492046FFF79FFC0346A0B919
:100B8C00202284F83D20002284F83C2061E72023B9
:100B9C0084F83D30002384F83C30012359E70223CC
:100BAC0057E7022355E7012353E7012351E70123BC
:100BBC004FE700BF0200100082B0084B1B68084AC8
:100BCC00A2FB03235B0A00FB03F0019000BF019B17
:100BDC005A1E0192002BF9D102B070472000002060
:100BEC00D34D6210002800F0F58170B582B0044638
:100BFC00036813F0010F2CD0AB4B5B6803F00C03B4
:100C0C00042B1DD0A84B5B6803F00C03082B12D0EF
:100C1C006368B3F5803F41D0002B55D103F180437D
:100C2C0003F504331A6822F480321A601A6822F42D
:100C3C0080221A6037E09C4B5B6813F4803FE7D04E
:100C4C00994B1B6813F4003F03D06368002B00F032
:100C5C00C381236813F0020F76D0934B5B6813F0BB
:100C6C000C0F5FD0904B5B6803F00C03082B54D037
:100C7C002369002B00F08A808C4B01221A60FFF74D
:100C8C00A1FA0546884B1B6813F0020F75D1FFF7CC
:100C9C0099FA401B0228F5D90320A0E1824A136877
:100CAC0043F480331360636843B3FFF78BFA054654
:100CBC007D4B1B6813F4003FCBD1FFF783FA401B2D
:100CCC006428F5D903208AE1B3F5A02F09D0764B1F
:100CDC001A6822F480321A601A6822F480221A6090
:100CEC00E1E703F18043A3F53C331A6842F4802218
:100CFC001A601A6842F480321A60D4E7FFF762FA7D
:100D0C000546694B1B6813F4003FA2D0FFF75AFA53
:100D1C00401B6428F5D9032061E1634B5B6813F435
:100D2C00803FA5D1604B1B6813F0020F04D02369E0
:100D3C00012B01D0012052E15B4A136823F0F80328
:100D4C00616943EAC1031360236813F0080F32D0C2
:100D5C00A369002B5BD0564B01221A60FFF732FAC5
:100D6C000546514B5B6A13F0020F21D1FFF72AFAAB
:100D7C00401B0228F5D9032031E14B4A136823F0BC
:100D8C00F803616943EAC1031360DDE7474B0022B6
:100D9C001A60FFF717FA0546434B1B6813F0020F56
:100DAC00D2D0FFF70FFA401B0228F5D9032016E129
:100DBC000120FFF701FF236813F0040F00F0988067
:100DCC00394BDB6913F0805F33D1374BDA6942F072
:100DDC008052DA61DB6903F080530193019B01259A
:100DEC00344B1B6813F4807F25D0E368012B36D07D
:100DFC00002B4CD103F1804303F504331A6A22F023
:100E0C0001021A621A6A22F004021A622CE0284BC0
:100E1C0000221A60FFF7D6F90546234B5B6A13F0E4
:100E2C00020FC8D0FFF7CEF9401B0228F5D90320DA
:100E3C00D5E00025D4E71F4A136843F48073136090
:100E4C00FFF7C0F906461B4B1B6813F4807FCCD10F
:100E5C00FFF7B8F9801B6428F5D90320BFE0124ACC
:100E6C00136A43F001031362E3687BB3FFF7AAF93B
:100E7C0006460D4B1B6A13F0020F38D1FFF7A2F98F
:100E8C00801B41F288339842F3D90320A7E0052B4D
:100E9C0012D0054B1A6A22F001021A621A6A22F069
:100EAC0004021A62E0E700BF001002400000424258
:100EBC0080044242007000404C4B1A6A42F004021B
:100ECC001A621A6A42F001021A62CDE7FFF77AF948
:100EDC000646464B1B6A13F0020F08D0FFF772F957
:100EEC00801B41F288339842F3D9032077E0E5B9AF
:100EFC00E369002B72D03D4A526802F00C02082ABA
:100F0C0056D0022B17D03A4B00221A60FFF75AF931
:100F1C000446364B1B6813F0007F47D0FFF752F99D
:100F2C00001B0228F5D9032059E0304AD36923F07D
:100F3C008053D361DCE72E4B00221A60FFF742F995
:100F4C0005462A4B1B6813F0007F06D0FFF73AF9D1
:100F5C00401B0228F5D9032041E0236AB3F5803FFA
:100F6C001AD022494B6823F47413226A606A024334
:100F7C0013434B601E4B01221A60FFF723F9044602
:100F8C001A4B1B6813F0007F0ED1FFF71BF9001BE7
:100F9C000228F5D9032022E0144A536823F40033C5
:100FAC00A1680B435360DCE7002018E0002016E03A
:100FBC00012B16D00D4B5B6803F48031226A9142F1
:100FCC0001D001200BE003F47013626A93420AD043
:100FDC00012004E001207047012000E0002002B055
:100FEC0070BD0120FBE70020F9E700BF00100240B4
:100FFC006000424210B487B0164C94E80F000DF11B
:10100C00180C0CE90F00238AADF80430124B5B6806
:10101C0003F00C02082A1AD1C3F38342624412F87B
:10102C00102C13F4803F05D10C4800FB02F007B0E4
:10103C0010BC7047084B5B68C3F34043634413F820
:10104C00143C074800FB02F0B0FBF3F0EFE7044858
:10105C00EDE700BF501C00080010024000093D00E5
:10106C0000127A00002800F0A38070B50446524BA1
:10107C001B6803F007038B420CD24F4A136823F012
:10108C0007030B431360136803F007038B4201D073
:10109C00012070BD236813F0020F17D013F0040F5A
:1010AC0004D0464A536843F4E0635360236813F05A
:1010BC00080F04D0414A536843F4605353603F4ACD
:1010CC00536823F0F003A068034353600D46236874
:1010DC0013F0010F31D06368012B20D0022B25D0E7
:1010EC00364A126812F0020F64D034494A6822F072
:1010FC00030213434B60FFF765F806462F4B5B6802
:10110C0003F00C036268B3EB820F16D0FFF75AF8AA
:10111C00801B41F288339842F0D90320B9E7274A63
:10112C00126812F4003FE0D10120B2E7234A1268A2
:10113C0012F0007FD9D10120ABE71F4B1B6803F0E5
:10114C000703AB420CD91C4A136823F007032B434B
:10115C001360136803F00703AB4201D0012098E73A
:10116C00236813F0040F06D0144A536823F4E06389
:10117C00E1680B435360236813F0080F07D00F4A44
:10118C00536823F46053216943EAC1035360FFF7AA
:10119C0031FF0A4B5B68C3F30313094AD35CD84095
:1011AC00084B1860084B1868FEF7CAFF002070E760
:1011BC000120704701206CE7002002400010024023
:1011CC00787000082000002004000020014B1868F3
:1011DC00704700BF2000002008B5FFF7F7FF044B55
:1011EC005B68C3F30223034AD35CD84008BD00BF3D
:1011FC00001002408870000884B00F4B9A6942F0CE
:10120C0020029A619A6902F020020192019A9A696D
:10121C0042F004029A619A6902F004020292029A64
:10122C009A6942F008029A619B6903F008030393E0
:10123C00039B04B0704700BF0010024008B509487A
:10124C00094B0360094B436000238360C3604FF478
:10125C008042026143618361C3610362FFF760FAFC
:10126C0008BD00BF4C04002000540040801A06004A
:10127C0030B591B00024089409940B940C9401940B
:10128C000294039404940594012206924FF4803343
:10129C0007930A9202250D950E934FF4E0130F93CA
:1012AC0006A8FFF79FFC0F230193029503944FF4BC
:1012BC00806304930594294601A8FFF7D3FE11B06F
:1012CC0030BD000000B583B0FEF75EFFFFF7D0FF26
:1012DC00FFF792FFFFF7B2FF00F01CFB002108465E
:1012EC0000F07CF9784C01222146784800F0CAF9CC
:1012FC001E210A2000F072F901222146744800F0E8
:10130C00C1F900F0DBFA4FF4FA60FEF761FF072138
:10131C00002000F0F9F94FF4FA60FEF759FF0721AD
:10132C00002000F01DFA4FF4FA60FEF751FF00F0B8
:10133C00AFFA00F0E7FA01240194402300938023D4
:10134C00644A0021084600F001F900F0B7FA4FF4A6
:10135C00FA60FEF73DFF0F21002000F0D5F94FF4A5
:10136C00FA60FEF735FF0F21002000F0F9F94FF479
:10137C00FA60FEF72DFF0F21002000F01DFA4FF44C
:10138C00FA60FEF725FF0F21002000F04BFA4FF416
:10139C00FA60FEF71DFF00F07BFA204600F07FFAA2
:1013AC004FF4FA60FEF714FF002000F078FA4FF4C7
:1013BC00FA60FEF70DFF00F0A5FA464E01250195E7
:1013CC0040240094802306F580620021084600F03A
:1013DC00BDF800F073FA00F095FA019500948023A3
:1013EC0006F500620021084600F0B0F800F066FA3D
:1013FC0000F088FA01950094802306F540620021E4
:10140C00084600F0A3F800F059FA00F07BFA324ECF
:10141C00019500948023A6F1F8020021084600F003
:10142C0095F800F04BFA00F06DFA019500948023CA
:10143C0006F542720021084600F088F800F03EFAEA
:10144C0000F060FA01950094802306F5E16200211A
:10145C00084600F07BF800F031FA00F053FA0195E1
:10146C000094802306F608320021084600F06EF83E
:10147C0000F024FA00F046FA01950094802306F659
:10148C0008720021084600F061F800F017FA00F02D
:10149C0039FA124E01950094802306F5047200214E
:1014AC00084600F053F800F009FA00F02BFA019509
:1014BC000094802306F5C2620021084600F046F82D
:1014CC0000F0FCF977E700BF1000002090700008D6
:1014DC009870000878440008705500086866000889
:1014EC0008B530B1FF214FF48062034800F096FB41
:1014FC0008BD0021F7E700BF480000207F2816D860
:10150C003F2914D8104B1B7913B1B2FA82F252094D
:10151C00012A0DD0CB0800EBC31001F0070101220A
:10152C008A40094B1844017A21EA02010172704782
:10153C00CB0800EBC31001F007018A40024B1844A2
:10154C00017A114301727047400000202DE9F04FE1
:10155C0083B00090884692461F46BDF930B0BDF866
:10156C003430019317F1070904D44FEAE909002636
:10157C0035462CE009F10709F7E709FB06F11A4695
:10158C00002B12DB42F3CF020A441AF8025015F07A
:10159C00800F0CD1013423B2BB4212DA9CB214F08E
:1015AC00070FEAD06D00EDB2F1E7DA1DEAE7009B18
:1015BC00E0189DF804201FFA88F180B2FFF79EFF17
:1015CC00E8E7013636B208F101080FFA88F85E45F3
:1015DC0001DA0023E0E703B0BDE8F08F014B18807F
:1015EC0059807047400000202DE9F843244B1B889C
:1015FC000C7823447F2B3EDC214B5B884C782344B6
:10160C003F2B3BDC90460D468146002620E01C4BD0
:10161C001888598831442044B8FA88F2520989B2A2
:10162C0080B2FFF76BFF01342B78A3420FD907FA76
:10163C0004F313F4004FEAD0114B18885988314445
:10164C002044424689B280B2FFF758FFEBE70136DF
:10165C006A78B24208D96968A9F1200302FB0363D6
:10166C0031F813700024DFE72B78054A11880B44FE
:10167C001380484600E00020BDE8F8830020FBE71B
:10168C004000002070B504460E46154623784BB139
:10169C002A4631461846FFF7A7FF2378984201D116
:1016AC000134F3E7184670BD30B5C3B08DF808109F
:1016BC00002104E04C1C555C02A90D55E1B28CB222
:1016CC009C42F7D301330A2200929BB202AA014634
:1016DC000248FFF7F5F843B030BD00BF4C040020C2
:1016EC0000B585B08DF80C108DF80D200A230093F1
:1016FC00022303AA01460348FFF7E2F805B05DF8A0
:10170C0004FB00BF4C04002038B505460C462622CD
:10171C0000217820FFF7E4FF002211467820FFF724
:10172C00DFFF2A4600217820FFF7DAFF002211465E
:10173C007820FFF7D5FF224600217820FFF7D0FF55
:10174C00002211467820FFF7CBFFFF2200217820E2
:10175C00FFF7C6FF2F2200217820FFF7C1FF38BD0D
:10176C0038B505460C46272200217820FFF7B8FF34
:10177C00002211467820FFF7B3FF2A46002178207B
:10178C00FFF7AEFF002211467820FFF7A9FF224693
:10179C0000217820FFF7A4FF002211467820FFF7E4
:1017AC009FFFFF2200217820FFF79AFF2F220021B4
:1017BC007820FFF795FF38BD38B505460C46A322B7
:1017CC0000217820FFF78CFF002211467820FFF7CC
:1017DC0087FF402200217820FFF782FF2922002179
:1017EC007820FFF77DFF002211467820FFF778FF65
:1017FC002A4600217820FFF773FF0022114678203B
:10180C00FFF76EFF224600217820FFF769FF0122C7
:10181C0000217820FFF764FF2F2200217820FFF7AA
:10182C005FFF38BD38B505460C46A3220021782051
:10183C00FFF756FF002211467820FFF751FF402298
:10184C0000217820FFF74CFF2A2200217820FFF797
:10185C0047FF002211467820FFF742FF2A4600215D
:10186C007820FFF73DFF002211467820FFF738FF64
:10187C00224600217820FFF733FF01220021782037
:10188C00FFF72EFF2F2200217820FFF729FF38BD0C
:10189C0008B52E2200217820FFF722FF08BD08B5DD
:1018AC0028B9A62200217820FFF71AFF08BDA7222D
:1018BC0000217820FFF714FFF8E7000010B5002492
:1018CC001AE0A4F15002D2B200217820FFF708FFF1
:1018DC00002211467820FFF703FF10220021782008
:1018EC00FFF7FEFE8023064A02EBC412402178204B
:1018FC00FFF7DAFE0134E4B2072CE2D910BD00BFC9
:10190C004800002008B50020FFF7EAFDFFF7D6FFDE
:10191C0008BD000008B544F6206301227821554823
:10192C00FFF788F8002840F0A38040F6C41300E0CD
:10193C00013B002BFCD1AE2200217820FFF7D0FE1A
:10194C00202200217820FFF7CBFE102200217820E6
:10195C00FFF7C6FEB02200217820FFF7C1FEC82297
:10196C0000217820FFF7BCFE002211467820FFF7FB
:10197C00B7FE102200217820FFF7B2FE4022002192
:10198C007820FFF7ADFE812200217820FFF7A8FE1A
:10199C00FF2200217820FFF7A3FEA122002178204E
:1019AC00FFF79EFEA62200217820FFF799FEA822C1
:1019BC0000217820FFF794FE3F2200217820FFF7CA
:1019CC008FFEA42200217820FFF78AFED32200216B
:1019DC007820FFF785FE002211467820FFF780FE65
:1019EC00D52200217820FFF77BFEF0220021782001
:1019FC00FFF776FED92200217820FFF771FE222214
:101A0C0000217820FFF76CFEDA2200217820FFF706
:101A1C0067FE122200217820FFF762FEDB220021F4
:101A2C007820FFF75DFE202200217820FFF758FE7A
:101A3C008D2200217820FFF753FE142200217820FC
:101A4C00FFF74EFEAF2200217820FFF749FE2E2231
:101A5C0000217820FFF744FE0020FFF741FDFFF73F
:101A6C002DFF054B00221A805A800120587108BDA9
:101A7C000020FCE74C0400204000002082B00E4BFC
:101A8C009A6942F001029A619A6902F0010200928D
:101A9C00009ADA6942F08052DA61DB6903F0805314
:101AAC000193019B054A536823F0E06343F00073F4
:101ABC00536002B0704700BF0010024000000140AC
:101ACC0010B586B000230293039304930593026828
:101ADC00114B9A4201D006B010BD104CA36943F0D3
:101AEC000803A361A36903F008030093009BC023C0
:101AFC000293122303930323059302A90848FEF7CC
:101B0C00D7FBE36943F40013E361E36903F40013C7
:101B1C000193019BDFE700BF00540040001002401E
:101B2C00000C01407047FEE7FEE7FEE7FEE770475A
:101B3C007047704708B5FEF739FB08BD0F4B1A68A4
:101B4C0042F001021A6059680D4A0A405A601A683C
:101B5C0022F0847222F480321A601A6822F48022F5
:101B6C001A605A6822F4FE025A604FF41F029A60FF
:101B7C00044B4FF000629A60704700BF00100240A7
:101B8C000000FFF800ED00E0002103E00B4B5B5878
:101B9C00435004310A480B4B42189A42F6D30A4A76
:101BAC0002E0002342F8043B084B9A42F9D3FFF7BA
:101BBC00C5FF00F00FF8FFF785FB7047A870000811
:101BCC00000000202400002024000020A00400209D
:101BDC00FEE7000070B500250C4E0D4CA41BA410A4
:101BEC00A54209D100F022F800250A4E0A4CA41B8C
:101BFC00A410A54205D170BD56F825309847013583
:101C0C00EEE756F8253098470135F2E7A07000084A
:101C1C00A0700008A0700008A470000803460244DD
:101C2C00934200D1704703F8011BF9E7F8B500BFE8
:101C3C00F8BC08BC9E467047F8B500BFF8BC08BCA1
:041C4C009E467047F9
:101C500002030405060708090A0B0C0D0E0F1010ED
:101C60000102000000000000000000000000000071
:101C70000000000000000000000000000000000064
:101C80000000000000000000000000000000000054
:101C90000000000000000000E003E003E003E003B8
:101CA000E003E003E003E003C003C003C001C001A0
:101CB000C001C001C001000000000000E003E0031B
:101CC000E003000000000000000000003C1E3C1E7D
:101CD0003C1E3C1E3C1E3C1E3C1E00000000000042
:101CE00000000000000000000000000000000000F4
:101CF00000000000000000000000000000000000E4
:101D0000CE01CE03DE039E039C039C07FF3FFF7FB3
:101D10003807380F780F780F780EFFFFFFFFF01E9F
:101D2000F01CE01CE03CE03DE03900000000000059
:101D300000000000FC03FE0FEE1FE01EE01EE01E90
:101D4000E01EE01FE00FE007F003FC01FE01FE01D2
:101D5000FE01FE01FE01FE01FE3DFC3FF00FE00131
:101D6000E001000000000000033E07F78FE78EE768
:101D70009EE3BCE3B8E7F8E7F0F7E03FC001FF03FC
:101D8000FF07F307F30FF31EF33CF338F3787FF00C
:101D90003FE000000000000000000000E007F80F36
:101DA000780F781F781F781F780FF00FE00F801FD3
:101DB000C37FC3FBE7F3F7F1F7F0FFF07FF03EF8E6
:101DC0007F7CFF3FEF1F00000000000000000000CC
:101DD000E003E003E003E003E003C003C001000010
:101DE00000000000000000000000000000000000F3
:101DF00000000000000000000000000000000000E3
:101E0000000000003F007C00F001E001C003C007BB
:101E100080078007800F000F000F000F000F000FDA
:101E2000000F800F80078007C007C003E001F001AA
:101E30007C003F000F000000007E001FC007C003B1
:101E4000E001F001F000F000F80078007800780080
:101E5000780078007800F800F000F000F001E00170
:101E6000C003C007001F007E00780000E003C0032D
:101E7000C001CE39FF3F7F3F20037003F807780F82
:101E80003C1F3806000000000000000000000000B9
:101E90000000000000000000000000000000000042
:101EA000000000000000000000000000C001C001B0
:101EB000C001C001C001C001C001FFFFFFFFC001A0
:101EC000C001C001C001C001C0010000000000004D
:101ED0000000000000000000000000000000000002
:101EE00000000000000000000000000000000000F2
:101EF000000000000000E003E003E003E003E00175
:101F0000E001E001C00180030000000000000000CB
:101F10000000000000000000000000000000FE3F84
:101F2000FE3F000000000000000000000000000074
:101F300000000000000000000000000000000000A1
:101F40000000000000000000000000000000000091
:101F50000000000000000000000000000000E0039E
:101F6000E003E003E00300000000000000000000C8
:101F70000F000F001E001E003C003C00780078009F
:101F8000F000F000E001E001C003C003800780071B
:101F9000000F000F001E001E003C003C007800787F
:101FA00000F00000F007F80F7C1F3E3E1E3C1F7C37
:101FB0001F7C0F780F780F780F780F780F780F78D5
:101FC0001F7C1F7C1E3C3E3E7C1FF80FF00700006C
:101FD0000000000000000000F000F007F03FF03FBC
:101FE000F001F001F001F001F001F001F001F00169
:101FF000F001F001F001F001F001F001F001FF3F0C
:10200000FF3F00000000000000000000E00FF83F6C
:102010007C3C3C003E003E003E003C003C007C001E
:10202000F800F001E003C0078007000F001E003E2B
:10203000003CFE3FFE3F00000000000000000000EA
:10204000F00FF81F7C1C3E003E003E003C003C00B0
:10205000F800F00FF80F7C003E001E001E001E006E
:102060001E003E007C1CF81FE01F00000000000066
:10207000000000007800F800F800F801F803F80705
:10208000F807780F781E781E783C78787878FFFF0C
:10209000FFFF780078007800780078007800000072
:1020A0000000000000000000FC1FFC1FFC1F001EC1
:1020B000001E001E001E001EE01FF81FFC007C001A
:1020C0003E003E001E003E003E003C007C1CF81F0F
:1020D000E01F00000000000000000000FC01FE07FF
:1020E0008E0F001F001E003E003C003CF83DFC3FF0
:1020F0003E7F1F7E0F3C0F3C0F3C0F3C0F3E1F1ED0
:102100003E1FFC0FF0030000000000000000000074
:10211000FF3FFF3FFF3F0F001E001E003C00380046
:102120007800F000F000E001E001C003C003800788
:10213000800F800F000F001F001F00000000000034
:1021400000000000F807FC0F3E1F1E1E1E3E1E3E34
:102150001E1E3C1FF80FF007F80FFC1E3E3E1F3CF2
:102160001F7C0F7C0F7C1F3C3E3FFC1FF0070000D4
:102170000000000000000000F007F80F7C1E3E3C4D
:102180001E3C1F7C1F7C1F7C1F7C1F3C3F3EFF1F93
:10219000EF071F001E001E003E003C00F838F03F15
:1021A000E01F000000000000000000000000000030
:1021B0000000000000000000E003E003E003E00393
:1021C0000000000000000000000000000000E0032C
:1021D000E003E003E0030000000000000000000056
:1021E000000000000000000000000000E003E00329
:1021F000E003E00300000000000000000000000019
:102200000000E003E003E003E003E001E001E0019F
:10221000C003800300000000000000000000000078
:1022200003000F003F00FC00F003C00F003F00FE62
:10223000003FC00FF003FC003F000F000300000050
:10224000000000000000000000000000000000008E
:10225000000000000000000000000000FFFFFFFF82
:10226000000000000000FFFFFFFF00000000000072
:10227000000000000000000000000000000000005E
:10228000000000000000000000E000F8007E801F59
:10229000E007F8017E001F007E00F801E007801FC4
:1022A000007E00F800E000000000000000000000D8
:1022B000F01FFC3F3E381F381F381E001E003C0038
:1022C0007800F000E001C003C003C007C0070000B1
:1022D00000000000C007C007C007000000000000A9
:1022E00000000000F803FE0F1E1F0F3E7F3CFF782A
:1022F000EF79C773C7F38FF38FF38FF39FF39FF3D8
:10230000FF73FF7BF779003C1C1FFC0FF8030000F4
:102310000000000000000000000000000000E003DA
:10232000E003F007F007F007780F780F7C0E3C1EF3
:102330003C1E3E3CFE3FFF3F1F780F780FF007F03A
:1023400007F0000000000000000000000000000096
:102350000000F83FFC3F3E3C1E3C1E3C1E3C3E3C09
:102360007C3CF03FF83F7E3C1F3C1F3C0F3C0F3C49
:102370001F3CFE3FF83F000000000000000000008E
:10238000000000000000FF01FF07871F003E003C27
:10239000007C00780078007800780078007C007C71
:1023A000003E003F831FFF07FF0100000000000008
:1023B00000000000000000000000F07FFC7F7E783D
:1023C0001F781F780F780F780F780F780F780F78B5
:1023D0000F780F781F781E787E78F87FE07F0000F6
:1023E0000000000000000000000000000000FF3FAF
:1023F000FF3F003E003E003E003E003E003EFE3FEE
:10240000FE3F003E003E003E003E003E003EFF3FDD
:10241000FF3F00000000000000000000000000007E
:102420000000FF1FFF1F001E001E001E001E001EDA
:10243000001EFF1FFF1F001E001E001E001E001EAC
:10244000001E001E001E0000000000000000000032
:10245000000000000000FE03FF0F871F003E007C0D
:10246000007C007800F800F87FF87FF80F780F7C88
:102470000F7C0F3E8F1FFF0FFE03000000000000C7
:10248000000000000000000000001F7C1F7C1F7C7B
:102490001F7C1F7C1F7C1F7C1F7CFF7FFF7F1F7C9E
:1024A0001F7C1F7C1F7C1F7C1F7C1F7C1F7C0000EF
:1024B0000000000000000000000000000000FF3FDE
:1024C000FF3FE003E003E003E003E003E003E00399
:1024D000E003E003E003E003E003E003E003FF3F89
:1024E000FF3F0000000000000000000000000000AE
:1024F0000000FC1FFC1F7C007C007C007C007C003A
:102500007C007C007C007C007C007C0078007800F3
:10251000F838F03FC03F000000000000000000005D
:102520000000000000001F3C1E3C3C3C783CF03C9E
:10253000E03DE03FC03F803FC03FE03FF03DF03C2A
:10254000783C7C3C3E3C1F3C0F3C000000000000FF
:1025500000000000000000000000003E003E003EC1
:10256000003E003E003E003E003E003E003E003E7B
:10257000003E003E003E003E003EFF3FFF3F0000A9
:1025800000000000000000000000000000001FF834
:102590001FFC1FFC3FFE3FFE3FFE7FFF77FF77FFE4
:1025A000F7F7E7F7E7F3E7F3C7F307F007F007F00C
:1025B00007F0000000000000000000000000000024
:1025C00000000F7C0F7C0F7E0F7F0F7F8F7F8F7F30
:1025D000CF7FEF7BEF79FF79FF78FF787F783F78C7
:1025E0003F781F781F780000000000000000000006
:1025F000000000000000F007FC1F3E3E1F7C0F782B
:102600000F780FF80FF80FF80FF80FF80FF80F7892
:102610000F781F7C3E3EFC1FF0070000000000000A
:1026200000000000000000000000FC3FFF3F1F3ED4
:102630000F3E0F3E0F3E0F3E1F3E3F3EFC3FF03F22
:10264000003E003E003E003E003E003E003E0000D8
:102650000000000000000000000000000000F00783
:10266000FC1F3E3E1F7C0F780F780FF80FF80FF815
:102670000FF80FF80FF80F780F781F7C3E3EFC1F05
:10268000F8077C003F000F0003000000000000007E
:102690000000F03FFC3F7E3C3E3C1E3C1E3C3E3C6E
:1026A0003C3CFC3CF03FE03FF03DF83C7C3C3E3C99
:1026B0001E3C1F3C0F3C000000000000000000001A
:1026C000000000000000FC07FE1F0E3E003C003C26
:1026D000003C003EC01FF80FFE037F001F000F00EC
:1026E0000F001F203E3CFC3FF01F000000000000D8
:1026F00000000000000000000000FFFFFFFFE003FB
:10270000E003E003E003E003E003E003E003E003B1
:10271000E003E003E003E003E003E003E003000084
:1027200000000000000000000000000000000F7C1E
:102730000F7C0F7C0F7C0F7C0F7C0F7C0F7C0F7C41
:102740000F7C0F7C0F7C0F7C1E3C1E3C3E3EFC1F12
:10275000F007000000000000000000000000000082
:10276000000007F007F007F80F780F7C1E3C1E3CB6
:102770001E3E3C1E3C1F781F780FF80FF007F00735
:10278000F007E003E003000000000000000000008C
:1027900000000000000003E003F003F007F0E7F39F
:1027A000E7F3E7F3E773F77BF77FFF7F7F7F7F7FB9
:1027B0007E7F7E3F3E3E3E3E3E3E000000000000EB
:1027C0000000000000000000000007F80F7C1E3E23
:1027D0003E3E3C1FF80FF007E007E003E003F00780
:1027E000F80F7C0F7C1E3E3C1F780F780FF0000026
:1027F000000000000000000000000000000007F8DA
:1028000007780F7C1E3C1E3E3C1F780FF80FF00728
:10281000E003E003E003E003E003E003E003E003A0
:10282000E0030000000000000000000000000000C5
:102830000000FF7FFF7F0F001F003E007C00F800BC
:10284000F000E001E003C007800F000F001E003E13
:10285000007CFF7FFF7F0000000000000000000000
:10286000FF078007800780078007800780078007B1
:102870008007800780078007800780078007800720
:102880008007800780078007800780078007FF0791
:10289000FF07000000780078003C003C001E001E8E
:1028A000000F000F80078007C003C003E001E001B4
:1028B000F000F000780078003C003C001E001E0094
:1028C0000F000F0007000000F07FF000F000F000A4
:1028D000F000F000F000F000F000F000F000F00078
:1028E000F000F000F000F000F000F000F000F00068
:1028F000F000F000F000F07FF07F0000C000C001A9
:10290000C001E003E003F007F0077807780F380F05
:102910003C1E3C1E1E3C1E3C0F380F780778000002
:1029200000000000000000000000000000000000A7
:102930000000000000000000000000000000000097
:102940000000000000000000000000000000000087
:1029500000000000000000000000FFFFFFFF00007B
:1029600000000000F0000000000000000000000077
:102970000000000000000000000000000000000057
:102980000000000000000000000000000000000047
:102990000000000000000000000000000000000037
:1029A00000000000F80FFC3F7C3C3E003E003E0073
:1029B000FE07FE1F3E3E3E7C3E783E7C7E7CFF3F17
:1029C000CF1F00000000000000000000003C003CA1
:1029D000003C003C003C003CF83DFE3F3E3F1F3EBB
:1029E0000F3C0F3C0F3C0F3C0F3C0F3C1F3C1E3C70
:1029F0003E3FFC3FF03B00000000000000000000F4
:102A0000000000000000000000000000FE03FF0FB7
:102A1000871F003E003E003C007C007C007C003CA8
:102A2000003E003E871FFF0FFE0300000000000075
:102A3000000000001F001F001F001F001F001F00DC
:102A4000FF07FF1F3F3E1F3C1F7C1F7C1F7C1F7822
:102A50001F781F7C1F7C3F3C7F3EFF1FDF0F000065
:102A60000000000000000000000000000000000066
:102A700000000000F803FC0F3E1F1E3E1F3C1F7CA1
:102A8000FF7FFF7F007C007C003C003E071FFF0FA4
:102A9000FE0300000000000000000000FF01E10351
:102AA000C003C007C007C007FF7FFF7FC007C00784
:102AB000C007C007C007C007C007C007C007C007DE
:102AC000C007C007C00700000000000000000000B1
:102AD000000000000000000000000000EF07FF1FE2
:102AE0007F3E1F3C1F7C1F7C1F781F781F781F7C38
:102AF0001F7C3F3C7F3EFF1FDF0F1E001E001E009D
:102B00007C38F83F003C003C003C003C003C003C72
:102B1000FC3DFE3F9E3F1F3F1F3E1F3C1F3C1F3C96
:102B20001F3C1F3C1F3C1F3C1F3C1F3C1F3C000028
:102B30000000000000000000F001F00100000000B3
:102B400000000000E07FE07FE001E001E001E00143
:102B5000E001E001E001E001E001E001E001E0016D
:102B6000E00100000000000000000000F800F80094
:102B70000000000000000000F83FF83FF800F800F7
:102B8000F800F800F800F800F800F800F800F80085
:102B9000F800F800F800F800F800F000F071E07FAD
:102BA000003C003C003C003C003C003C1F3C3E3CE8
:102BB0007C3CF83CF03DE03DC03FC03FE03FF03D95
:102BC000F83C7C3C3E3C1F3C1F3C000000000000E9
:102BD00000000000F07FF001F001F001F001F001D1
:102BE000F001F001F001F001F001F001F001F0015D
:102BF000F001F001F001F001F001F001F00100003E
:102C000000000000000000000000000000000000C4
:102C1000000000009EF7FFFFFFFFFFFFE7FBE7F963
:102C2000C7F1C7F1C7F1C7F1C7F1C7F1C7F1C7F1E4
:102C3000C7F10000000000000000000000000000DC
:102C40000000000000000000FC3DFE3F9E3F1F3FD3
:102C50001F3E1F3C1F3C1F3C1F3C1F3C1F3C1F3C9A
:102C60001F3C1F3C1F3C0000000000000000000053
:102C7000000000000000000000000000F007FC1F42
:102C80003E3E1F3C1F7C0F780F780F780F780F782F
:102C90001F7C1F3C3E3EFC1FF007000000000000B0
:102CA0000000000000000000000000000000000024
:102CB000F83DFE3F3E3F1F3E0F3C0F3C0F3C0F3C9C
:102CC0000F3C0F3C1F3C1E3E3E3FFC3FF83F003C8C
:102CD000003C003C003C003C000000000000000004
:102CE00000000000EE07FE1F7E3E1E3C1E7C1E788C
:102CF0001E781E781E781E781E7C3E7C7E3EFE1F4F
:102D0000DE0F1E001E001E001E001E000000000040
:102D100000000000000000007F1FFF1FE71FC71F0B
:102D2000871F001F001F001F001F001F001F001F24
:102D3000001F001F001F0000000000000000000036
:102D4000000000000000000000000000FC07FE1F63
:102D50000E1E003E003E003FE01FFC07FE003E004E
:102D60001E001E003E3CFC3FF01F00000000000063
:102D700000000000000000000000800780078007BE
:102D8000FF7FFF7F8007800780078007800780071D
:102D90008007800780078007C007FF03FF0100004E
:102DA0000000000000000000000000000000000023
:102DB000000000001E3C1E3C1E3C1E3C1E3C1E3CF7
:102DC0001E3C1E3C1E3C1E3C3E3C7E3CFE3EFE1F0E
:102DD000DE0F000000000000000000000000000006
:102DE000000000000000000007F00F780F781E3C84
:102DF0001E3C1E3E3C1E3C1E780F780FF00FF00765
:102E0000F007E003E0030000000000000000000005
:102E100000000000000000000000000003F0E3F1EB
:102E2000E3F3E7F3F7F3F7F3F77F777F7F7F7F7FB6
:102E30007F7F3E3E3E3E3E3E3E3E000000000000A4
:102E40000000000000000000000000000000000082
:102E50000F7C1E3E3C3E3C1FF80FF007F007E003DE
:102E6000F007F807F80F7C1E3E3E1F3C1F7800005D
:102E70000000000000000000000000000000000052
:102E80000000000007F80F780F7C1E3C1E3C3C1E23
:102E90003C1E3C1F780FF80FF007F007E003E0033B
:102EA000C003C003C0038007800F007F0000000044
:102EB0000000000000000000FF3FFF3F1F003E0039
:102EC0007C00F800F001E003C007800F001F001E27
:102ED000003CFF7FFF7F00000000000000000000BA
:102EE000FE01E003C003C003C003C003E001E00132
:102EF000E001C001C003803F803FC003C001E0018A
:102F0000E001E001C003C003C003C003E003FE0111
:102F10007E000000C001C001C001C001C001C001AD
:102F2000C001C001C001C001C001C001C001C00199
:102F3000C001C001C001C001C001C001C001C00189
:102F4000C001C001C0010000C03FE003E001E0019A
:102F5000E001E001C001C003C003C001E001FE00C8
:102F6000FE00E001C001C003C003C001E001E001B8
:102F7000E001E001E003C03F003F0000000000006E
:102F80000000000000000000000000000000000041
:102F90000000073FC77FE773FFF17EF000000000ED
:102FA0000000000000000000000000000000000021
:102FB0000000000000000000000000000000000011
:102FC0000000000000000000000000000000000001
:102FD000000000000000000C000C000C000C000CB5
:102FE000000C000C000C000C000C000C0000000C8D
:102FF000000C0000000000000000001B001B001B74
:10300000001B001B0000000000000000000000008A
:103010000000000000000000000000000000801917
:10302000801980198019C07FC07F80190033C07F4C
:10303000C07F003300330033003300000000000085
:103040000000001E003F807580650074003C001E7B
:1030500000078005806580658075003F001E0004C4
:10306000000400000000007000D840D8C0D880D90B
:1030700000730006000C801BC036C066C046C00648
:1030800080030000000000000000001E003F00332D
:1030900000330033001E000CC03CC06680638061BA
:1030A0008063C03E801C0000000000000000000C97
:1030B000000C000C000C000C0000000000000000E0
:1030C0000000000000000000000000000000000000
:1030D000800000010003000600060004000C000C44
:1030E000000C000C000C000C00040006000600039D
:1030F00000018000002000100018000C000C0004EB
:103100000006000600060006000600060004000C8B
:10311000000C0018001000200000000C002D003FE3
:10312000001E00330000000000000000000000004E
:10313000000000000000000000000000000000008F
:103140000000000C000C000C000CC0FFC0FF000CC5
:10315000000C000C000C000000000000000000004B
:10316000000000000000000000000000000000005F
:1031700000000000000000000000000C000C000433
:103180000004000800000000000000000000000033
:10319000000000000000001E001E000000000000F3
:1031A000000000000000000000000000000000001F
:1031B000000000000000000000000000000000000F
:1031C0000000000C000C00000000000000000003E4
:1031D000000300030006000600060006000C000CB9
:1031E000000C000C0018001800180000000000007F
:1031F0000000001E003F0033806180618061806DAF
:10320000806D8061806180610033003F001E00009E
:103210000000000000000006000E001E0036002620
:10322000000600060006000600060006000600066E
:1032300000060000000000000000001E003F807338
:1032400080618061800100030006000C00180030DE
:103250000060807F807F0000000000000000001CF4
:10326000003E006300630003000E000E00038001B7
:10327000800180618073003F001E0000000000009C
:1032800000000006000E000E001E001E0016003694
:1032900000360066807F807F000600060006000082
:1032A000000000000000007F007F00600060006000
:1032B000006E007F80638001800180618073003F29
:1032C000001E0000000000000000001E003F8033D0
:1032D00080610060006E007F80738061806180612A
:1032E0008033003F001E0000000000000000807FCF
:1032F000807F80010003000300060006000C000C24
:10330000000C000800180018001800000000000061
:103310000000001E003F8063806180610021001E6C
:10332000003F8061806180618061003F001E00007D
:10333000000000000000001E003F007380618061FB
:1033400080618073803F801D800180610073003F39
:10335000001E00000000000000000000000000004F
:103360000000000C000C0000000000000000000045
:103370000000000C000C0000000000000000000035
:103380000000000000000000000C000C0000000025
:10339000000000000000000C000C00040004000805
:1033A000000000000000000080008003000E0038D4
:1033B00000600038000E8003800000000000000064
:1033C0000000000000000000000000000000807FFE
:1033D000807F00000000807F807F000000000000F0
:1033E00000000000000000000000000000000000DD
:1033F00000400070001C000780010007001C0070E6
:103400000040000000000000000000000000001F5D
:10341000803FC071C060C000C00180030007000E83
:10342000000C000C0000000C000C0000000000006C
:103430000000001E003F803180718063806F806DCE
:10344000806D806F806700600032003E001C0000CD
:10345000000000000000000E000E001B001B001BFF
:10346000001B80318031803F803F8031C060C06070
:10347000C0600000000000000000007C007E0063CF
:10348000006300630063007E007E006380618061F2
:103490008063007F007E0000000000000000001E2E
:1034A000003F80318061006000600060006000606B
:1034B000006080618031003F001E000000000000BD
:1034C0000000007C007F0063806380618061806118
:1034D00080618061806100630063007E007C000089
:1034E000000000000000807F807F006000600060BE
:1034F0000060007F007F0060006000600060807FEF
:10350000807F0000000000000000807F807F00605E
:10351000006000600060007F007F0060006000606D
:103520000060006000600000000000000000001E5D
:10353000003F8031806100600060006080638063D4
:10354000806180618031803F001E0000000000002B
:103550000000806180618061806180618061807F26
:10356000807F806180618061806180618061000016
:10357000000000000000003F003F000C000C000CA9
:10358000000C000C000C000C000C000C000C003FA8
:10359000003F000000000000000080018001800169
:1035A0008001800180018001800180018061806153
:1035B0008073003F001E0000000000000000C0609B
:1035C0008061006300660066006C0078007C006625
:1035D0000066006380618061C06000000000000040
:1035E000000000600060006000600060006000603B
:1035F00000600060006000600060807F807F0000ED
:10360000000000000000C071C071C07BC07AC06AB9
:10361000C06AC06EC064C060C060C060C060C0608E
:10362000C06000000000000000008071807180799F
:1036300080798079806D806D806D8065806780671E
:103640008067806380630000000000000000001EAF
:10365000003F0033806180618061806180618061B2
:10366000806180610033003F001E00000000000008
:103670000000007E007F80638061806180618063E4
:10368000007F007E0060006000600060006000005D
:10369000000000000000001E003F003380618061D8
:1036A0008061806180618061806580670033803FD8
:1036B000401E0000000000000000007E007F8063CC
:1036C000806180618063007F007E0066006300632C
:1036D00080618061C0600000000000000000000EFA
:1036E000001F8031803100300038001E0007800349
:1036F000806180618031003F001E000000000000FA
:103700000000C0FFC0FF000C000C000C000C000CFF
:10371000000C000C000C000C000C000C000C000055
:103720000000000000008061806180618061806134
:103730008061806180618061806180618073003F11
:10374000001E0000000000000000C060C060C060FB
:10375000803180318031001B001B001B001B000EDC
:10376000000E000E00040000000000000000C0C0B9
:10377000C0C0C0C0C0C0C0C0C0CC804C804C805E47
:1037800080528052807380618061000000000000E0
:103790000000C0C0806080610033003B001E000C50
:1037A000000C001E001F003B80718061C0C0000043
:1037B000000000000000C0C0806180610033003361
:1037C000001E001E000C000C000C000C000C000C75
:1037D000000C0000000000000000803F803F8001DE
:1037E000000300030006000C000C00180018003055
:1037F0000060807F807F000000000000000F000F4D
:10380000000C000C000C000C000C000C000C000C58
:10381000000C000C000C000C000C000C000F000F42
:103820000000001800180018000C000C000C000C20
:103830000006000600060006000300030003000067
:1038400000000000001E001E000600060006000624
:103850000006000600060006000600060006000638
:1038600000060006001E001E0000000C000C001EDA
:10387000001200330033806180610000000000000E
:103880000000000000000000000000000000000038
:103890000000000000000000000000000000000028
:1038A000000000000000000000000000E0FF000039
:1038B000000000380018000C0000000000000000AC
:1038C00000000000000000000000000000000000F8
:1038D0000000000000000000000000000000001FC9
:1038E000803F80618001801F803F80618063807F96
:1038F000C0380000000000000000006000600060B0
:103900000060006E007F80738061806180618061F3
:103910008073007F006E00000000000000000000C7
:10392000000000000000001E003F80738061006006
:10393000006080618073003F001E000000000000F6
:1039400000008001800180018001801D803F807324
:1039500080618061806180618073803F801D000094
:103960000000000000000000000000000000001E39
:10397000003F00738061807F807F00608071003F26
:10398000001E0000000000000000C007C00F000C77
:10399000000C807F807F000C000C000C000C000CE1
:1039A000000C000C000C00000000000000000000F3
:1039B00000000000801D803F807380618061806115
:1039C00080618073803F801D80018063007F003EA6
:1039D00000000060006000600060006F807F807108
:1039E00080618061806180618061806180610000B0
:1039F0000000000000000006000600000000003E7D
:103A0000003E00060006000600060006000600064E
:103A10000006000000000000000600060000000094
:103A2000003E003E000600060006000600060006F6
:103A30000006000600060046007E003C0000006014
:103A4000006000600060806100630066006C007CC4
:103A50000076006300638061C06000000000000029
:103A60000000003E003E00060006000600060006BC
:103A7000000600060006000600060006000600001C
:103A8000000000000000000000000000000080DDD9
:103A9000C0FFC0CEC0CCC0CCC0CCC0CCC0CCC0CC91
:103AA000C0CC00000000000000000000000000008A
:103AB0000000006F807F8071806180618061806123
:103AC0008061806180610000000000000000000053
:103AD000000000000000001E003F807380618061D4
:103AE000806180618073003F001E000000000000C4
:103AF0000000000000000000006E007F8073806105
:103B00008061806180618073007F006E0060006072
:103B1000006000600000000000000000801D803F89
:103B2000807380618061806180618073803F801DCF
:103B30008001800180018001000000000000000081
:103B400000000067803F0039003000300030003056
:103B500000300030003000000000000000000000D5
:103B6000000000000000001E803F80610060007FB8
:103B7000803F80018061007F001E00000000000087
:103B800000000000000800180018007F007F0018E7
:103B900000180018001800180018801F800F00007F
:103BA0000000000000000000000000000000806134
:103BB0008061806180618061806180618063807FDD
:103BC000803D000000000000000000000000000038
:103BD0000000C060803180318031001B001B001B61
:103BE000000E000E000600000000000000000000B3
:103BF00000000000000080DD80DD80DD0055005504
:103C0000005500770077002200220000000000002D
:103C1000000000000000000000008061003300335D
:103C2000001E000C000C001E0033003380610000F9
:103C300000000000000000000000000080618061C2
:103C4000803100330033001B001B001B000E000EF0
:103C5000000E001C007C007000000000000000004E
:103C60000000C07FC07F800100030006000C001828
:103C70000030C07FC07F000000000000800380078C
:103C800000060006000600060006000E001C001CD0
:103C9000000E0006000600060006000680078003EE
:103CA00000060006000600060006000600060006E4
:103CB00000060006000600060006000600060006D4
:103CC000000600060038003C000C000C000C000C44
:103CD000000C000E00070007000E000C000C000C8A
:103CE000000C000C003C0038000000000000000048
:103CF0000000000000008038807F004700000000C6
:103D000000000000000000000000000000000000B3
:103D100000000000000000000000000000000000A3
:103D20000010001000100010001000100000001023
:103D3000000000000028002800280000000000000B
:103D4000000000000000000000240024007C00248B
:103D50000048007C00480048000000000038005483
:103D600000500038001400540054003800100000C7
:103D700000200054005800300028005400140008AF
:103D80000000000000100028002800100034004847
:103D90000048003400000000001000100010000077
:103DA00000000000000000000000000000080010FB
:103DB000002000200020002000200020001000082B
:103DC0000020001000080008000800080008000893
:103DD0000010002000100038001000280000000033
:103DE00000000000000000000000000000100010B3
:103DF000007C001000100000000000000000000027
:103E00000000000000000000000000100010001082
:103E1000000000000000000000000038000000006A
:103E20000000000000000000000000000000000092
:103E30000000001000000000000800080010001042
:103E40000010001000200020000000000038004496
:103E500000440054004400440044003800000000C6
:103E60000010003000500010001000100010001072
:103E70000000000000380044004400040008001066
:103E80000020007C000000000038004400040018FE
:103E9000000400040044003800000000000800187E
:103EA000002800280048007C0008000800000000EE
:103EB000007C00400040007800040004004400380A
:103EC0000000000000380044004000780044004436
:103ED0000044003800000000007C000400080010CE
:103EE00000100020002000200000000000380044E6
:103EF0000044003800440044004400380000000042
:103F00000038004400440044003C000400440038F1
:103F10000000000000000000001000000000000091
:103F20000000001000000000000000000000001071
:103F30000000000000000010001000100000000051
:103F4000000C003000400030000C000000000000B9
:103F5000000000000000007C0000007C0000000069
:103F600000000000000000000060001800040018BD
:103F70000060000000000000003800440004000859
:103F80000010001000000010000000000038004485
:103F9000004C0054005C004000400038000000006D
:103FA00000100028002800280028007C004400445D
:103FB0000000000000780044004400780044004401
:103FC0000044007800000000003800440040004039
:103FD000004000400044003800000000007000482D
:103FE0000044004400440044004800700000000009
:103FF000007C00400040007C004000400040007C0D
:1040000000000000007C00400040007800400040BC
:104010000040004000000000003800440040004024
:10402000005C0044004400380000000000440044EC
:104030000044007C004400440044004400000000B0
:1040400000380010001000100010001000100038A0
:104050000000000000040004000400040004000448
:104060000044003800000000004400480050006098
:10407000005000480048004400000000004000409C
:1040800000400040004000400040007C0000000074
:104090000044006C006C00540044004400440044A0
:1040A0000000000000440064006400540054004C10
:1040B000004C00440000000000380044004400446C
:1040C0000044004400440038000000000078004430
:1040D0000044004400780040004000400000000020
:1040E00000380044004400440044004400540038B8
:1040F00000040000007800440044004400780048B8
:104100000048004400000000003800440040003037
:10411000000800040044003800000000007C00108B
:10412000001000100010001000100010000000002F
:10413000004400440044004400440044004400386B
:10414000000000000044004400440028002800282B
:10415000001000100000000000440044005400540F
:104160000054006C002800280000000000440028D3
:104170000028001000100028002800440000000063
:104180000044004400280028001000100010001017
:1041900000000000007C0004000800100010002057
:1041A0000040007C0000000000180010001000100B
:1041B0000010001000100010001000180020002057
:1041C000001000100010001000080008000000009F
:1041D000003000100010001000100010001000103F
:1041E00000100030001000280028004400000000EB
:1041F00000000000000000000000000000000000BF
:104200000000000000000000000000FE0020001080
:10421000000000000000000000000000000000009E
:104220000000000000380044003C0044004C003412
:1042300000000000004000400058006400440044BA
:104240000064005800000000000000000038004436
:10425000004000400044003800000000000400045A
:104260000034004C00440044004C003400000000C6
:104270000000000000380044007C0040004400388A
:1042800000000000000C0010007C00100010001066
:104290000010001000000000000000000034004C7E
:1042A00000440044004C003400040078004000400A
:1042B0000058006400440044004400440000000032
:1042C000001000000070001000100010001000101E
:1042D000000000000010000000700010001000102E
:1042E00000100010001000E00040004000480050A6
:1042F0000060005000480044000000000070001002
:10430000001000100010001000100010000000004D
:104310000000000000780054005400540054005481
:104320000000000000000000005800640044004449
:104330000044004400000000000000000038004479
:104340000044004400440038000000000000000069
:1043500000580064004400440064005800400040DD
:10436000000000000034004C00440044004C0034C5
:1043700000040004000000000058006400400040F9
:104380000040004000000000000000000038004431
:104390000030000800440038000000000020002029
:1043A00000780020002000200020001800000000FD
:1043B000000000000044004400440044004C00346D
:1043C0000000000000000000004400440028002815
:1043D00000280010000000000000000000540054FD
:1043E0000054006C002800280000000000000000BD
:1043F00000440028001000100028004400000000C5
:1044000000000000004400440028002800100010B4
:104410000010006000000000007C00080010002078
:104420000040007C00000000001800100010001088
:1044300000200020001000100010001800100010D4
:1044400000100010001000100010001000100010EC
:1044500000300010001000100008000800100010CC
:10446000001000300000000000000074004C00004C
:10447000000000000000000000000000000000003C
:10448000000000000000000000000000000000002C
:1044900000003FC00000000000000000000000001D
:1044A00000007FE0000000000000000000000001AC
:1044B000C000FFF000000000000000000000007FCE
:1044C000FF00FFF00000000000000000000001E01D
:1044D00001E1FFF8000000000000000000000F00F4
:1044E0000031FFF8000000000000000000001E0086
:1044F0000011FFF8000000000000000000007FE055
:1045000003F9FFF000000000000000000000F03C94
:104510001F00FFF000000000000000000001C007C5
:10452000F000FFF000000000000000000003C003E6
:10453000E0007FE0000000000000000000066007CF
:1045400070001F800000000000000000000E300C12
:104550001C0000000000000000000000000E1838E1
:10456000060000000000000000000000001C0C70AD
:10457000030010000000000000000000001C07C045
:1045800001C01E0000000000000000000034038095
:1045900000601B00000000000000000000240380F9
:1045A00000301B000000000000000000006606E074
:1045B00000181100000000000000000000660C70F0
:1045C000000C1180000000000000000000421838BC
:1045D0000004318000000000000000000043300CA7
:1045E00000063080000000000000000000C320062C
:1045F00000032080000000000000000000C1E00374
:104600000001E080000000000000000000C1C001C7
:104610008000C080000000000000000000C0C0005A
:10462000C000C080000000000000000000C1C00009
:104630006001C080000000000000000000C1E00038
:104640003001E080000000000000000000C33000E6
:10465000180320800000000000000000004310004C
:104660000C0631800000000000000000004218002D
:10467000060C3180000000000000000000660C0005
:104680000398118000000000000000000066060092
:1046900001F01900000000000000000000240300E9
:1046A00000F01B000000000000000000003401804A
:1046B00000F01A000000000000000000001C00E0F4
:1046C00001981E00000000000000000000000070C3
:1046D000030C1C0000000000000000000000001897
:1046E0000E061C0000000000000000000000000E8C
:1046F00018031800000000000000000000FE000386
:10470000F001B000000000000000000001FF800385
:10471000E000E000000000000000000003FF800F48
:104720007800C000000000000000000007FFC0FC8F
:104730000FCF8000000000000000000007FFC7C08E
:1047400001FF0000000000000000000007FFC6009D
:10475000001C0000000000000000000007FFC780F0
:1047600000780000000000000000000007FFC1F01A
:1047700007C00000000000000000000007FFC03F6D
:10478000FE000000000000000000000003FF8000A9
:1047900000000000000000000000000001FF000019
:1047A000000000000000000000000000007E00008B
:1047B00000000000000000000000000000000000F9
:1047C00000000000000000000000000000000000E9
:1047D00000000000000000000F0F8C27F7E1F0C17F
:1047E00081F9F0FBF9F0F18C1939CE21C63398C16B
:1047F00081819980E181918C3030CF2086330CC14A
:1048000081818D804103018C30304F2086320CC174
:1048100081F198F041F301FC30304DE087E20CC1AA
:104820008181F018438301FC3030CCE086630CC1F9
:104830008181B00C4103018C1D9FCC608663F8FD23
:10484000F9F999D841F1D98C0F0F0C208630F0FD81
:10485000F9F98CF041F0F18C00000000000000003C
:104860000000000000000000000000000000000048
:104870000000000000000000000000000000000038
:104880000000000000000000000000000000000028
:104890000000000000000000000000000000000018
:1048A0000000000000000000000000000000000008
:1048B00000000000000000000000000000000000F8
:1048C00000000000000000000000000000000000E8
:1048D00000000000000000000000000000000000D8
:1048E00000000000000000000000000000000000C8
:1048F00000000000000000000000000000000000B8
:1049000000000000000000000000000000000000A7
:104910000000000000000000000000000000000097
:104920000000000000000000000000000000000087
:104930000000000000000000000000000000000077
:104940000000000000000000000000003FF86000D0
:1049500000000000000000000000001FFFFFF0004A
:1049600000000000000000000000007FFFFFC0000A
:104970000000000000000000000005FFFFFFE40051
:10498000000000000000000000000FFFFFFF80009B
:10499000000000000000000000000F000FFF0000FA
:1049A00000000000000000000000060000FF800082
:1049B000000000000000000000001860001FF80068
:1049C000000000000000000000003C7800078000AC
:1049D00000000000000000000000306E0000000039
:1049E0000000000000000000000050738000000084
:1049F000000000000000000000008000C00005FF73
:104A00000037F000001F800000010000FC000000E3
:104A10000007FF8003F030000000080038000000AD
:104A20000000BFFFFFE004000001900060000000F4
:104A3000000087FFFFFE00000001E00060000000B2
:104A4000000001FFFFFFC000000040006006000002
:104A50000000001FFC00080000000000E00600004D
:104A60001000800000000000000000006006000050
:104A7000300180000000000000000000700600000F
:104A80003007000000000000000000007FC60000AA
:104A9000E00F0000000000000000000F81CC0010BB
:104AA000E0380000000000000000000FC008860091
:104AB00000600000000000000000001FF620000061
:104AC00021C00000000000000000001FC000000026
:104AD00000000000000000000000003E0000000098
:104AE0000401000000000000000000F800000000C9
:104AF0004800000000000000000001F0000000007D
:104B0000700000000000000000000720000000000E
:104B1000F00078000000000000003C3800000000B9
:104B2000F000780000000000000078300000000174
:104B3000C0007800000000000001E0000000000359
:104B400080007000000000000003C00000000006AC
:104B50000000700000000000000000000000001CC9
:104B60000000300000000000000000000000003CD9
:104B7000000030000000000000000000000000788D
:104B8000000070000000000000000000000001E0D4
:104B90000000F0000000000000000000000003C062
:104BA0000003F0000000000000000000000006000C
:104BB000000780000000000000000000000000006E
:104BC00000000000000000000000000000000000E5
:104BD00000000000000000000000000000000000D5
:104BE00000000000000000000000000000000000C5
:104BF00000000000000000000000000000000000B5
:104C000000000000000000000000000000000000A4
:104C10000000000000000000000000000000000094
:104C20000000000000000000000000000000000084
:104C30000000000000000000000000000000000074
:104C40000000000000000000000000000000000064
:104C50000000000000000000000000000000000054
:104C60000000000000000000000000000000000044
:104C70000000000000000000000000000000000034
:104C80000000000000000000000000000000000024
:104C90000000000000000000000000000000000014
:104CA0000000000000000000000000000000000004
:104CB00000000000000000000000000000000000F4
:104CC00000000000000000000000000000000000E4
:104CD00000000000000000000000000000000000D4
:104CE00000000000000000000000000000000000C4
:104CF00000000000000000000000000000000000B4
:104D000000000000000000000000000000000000A3
:104D10000000000000000000000000000000000093
:104D20000000000000000000000000000000000083
:104D30000000000000000000000000000000000073
:104D40000000000000000000000000003FF86000CC
:104D500000000000000000000000001FFFFFF00046
:104D600000000000000000000000007FFFFFC00006
:104D70000000000000000000000005FFFFFFE4004D
:104D8000000000000000000000000FFFFFFF800097
:104D9000000000000000000000000F000FFF0000F6
:104DA00000000000000000000000060000FF80007E
:104DB000000000000000000000001860001FF80064
:104DC000000000000000000000003C7800078000A8
:104DD00000000000000000000000306E0000000035
:104DE0000000000000000000000050738000000080
:104DF000000000000000000000008000C00005FF6F
:104E00000037F000001F800000010000FC000000DF
:104E10000007FF8003F030000000080038000000A9
:104E20000000BFFFFFE004000001900060000000F0
:104E3000000087FFFFFE00000001E00060000000AE
:104E4000000001FFFFFFC0000000400060060000FE
:104E50000000001FFC00080000000000E006000049
:104E6000100080000000000000000000600600004C
:104E7000300180000000000000000000700600000B
:104E80003007000000000000000000007FC60000A6
:104E9000E00F0000000000000000000F81CC0010B7
:104EA000E0380000000000000000000FC00886008D
:104EB00000600000000000000000001FF62000005D
:104EC00021C00000000000000000001FC000000022
:104ED00000000000000000000000003E0000000094
:104EE0000401000000000000000000F800000000C5
:104EF0004800000000000000000001F00000000079
:104F0000700000000000000000000720000000000A
:104F1000F00078000000000000003C3800000000B5
:104F2000F000780000000000000078300000000170
:104F3000C0007800000000000001E0000000000355
:104F400080007000000000000003C00000000006A8
:104F50000000700000000000000000000000001CC5
:104F60000000300000000000000000000000003CD5
:104F70000000300000000000000000000000007889
:104F8000000070000000000000000000000001E0D0
:104F90000000F0000000000000000000000003C05E
:104FA0000003F00000000000000000000000060008
:104FB000000780000000000000000000000000006A
:104FC00000000000000000000000000000000000E1
:104FD00000000000000000000000000000000000D1
:104FE00000000000000000000000000000000000C1
:104FF00000000000000000000000000000000000B1
:1050000000000000000000000000000000000000A0
:105010000000000000000000000000000000000090
:105020000000000000000000000000000000000080
:105030000000000000000000000000000000000070
:105040000000000000000000000000000000000060
:105050000000000000000000000000000000000050
:105060000000000000000000000000000000000040
:105070000000000000000000000000000000000030
:105080000000000000000000000000000000000020
:105090000000000000000000000000000000000010
:1050A0000000000000000000000000000000000000
:1050B00000000000000000000000000000000000F0
:1050C00000000000000000000000000000000000E0
:1050D00000000000000000000000000000000000D0
:1050E00000000000000000000000000000000000C0
:1050F00000000000000000000000000000000000B0
:10510000000000000000000000000000000000009F
:10511000000000000000000000000000000000008F
:10512000000000000000000000000000000000007F
:10513000000000000000000000000000000000006F
:105140000000000000000000000000000006000059
:105150000000000000000000000000000FFFB00091
:1051600000000000000000000000007FFFFC0000C5
:105170000000000000000000000001FFFFF81FC059
:10518000000000000000000000000FFFFFFFF8001B
:10519000000000000000000000001FE01FFFC00032
:1051A000000000000000000000001E83887F8000D7
:1051B000000000000000000000003C00000FF000B4
:1051C00000000000000000000000F8FA0003870063
:1051D00000000000000000000000F8FE0000C00019
:1051E00000000000000000000001E0E706003000C1
:1051F000000000000000FF0000010003CE00078057
:105200000FF7FFF0000FFC0000020200DC00007F3F
:10521000C007FFFFF1FF80000004180078000000C5
:105220000000DFFFFFFC000000074000300000002E
:10523000000043FFFFF000000003C0002000040056
:105240001800603FFF800000000180005FFFFF004A
:10525000187FA003E0000000000000007FEFFF8047
:105260001CFFA0000000000000000000601C000007
:105270000C00600000000000000000003F1800006B
:105280000E00E000000000000000003FC0380000F9
:105290000601E0000000000000000078003C00056E
:1052A000FE21A00000000000000000E3FCA3E7F0E6
:1052B0001FFFD00000000000000001803F801800A8
:1052C000018308000000000000000300420000000D
:1052D00000C306000000000000000F00C400000032
:1052E0000023FCF00000000000001E009000000001
:1052F000001103F00000000000001C01200000006D
:10530000000D00F80000000000007C01800000009B
:1053100000078038000000000000700380000000DB
:105320000007C01800000000000000070000000097
:105330000007C00C000000000000000E000000008C
:105340000007C00C000000000000001C000000006E
:105350000007800E00000000000000380000000080
:105360000007000E000000000000007000000000B8
:10537000000E000E00000000000001E00000000030
:10538000001E000E0000000000000780000000006A
:10539000003C001E000000000000000000000000B3
:1053A00001FC003E000000000000000000000000C2
:1053B0000F80003800000000000000000000000026
:1053C0001F000000000000000000000000000000BE
:1053D00000000000000000000000000000000000CD
:1053E00000000000000000000000000000000000BD
:1053F00000000000000000000000000000000000AD
:10540000000000000000000000000000000000009C
:10541000000000000000000000000000000000008C
:10542000000000000000000000000000000000007C
:10543000000000000000000000000000000000006C
:10544000000000000000000000000000000000005C
:10545000000000000000000000000000000000004C
:10546000000000000000000000000000000000003C
:10547000000000000000000000000000000000002C
:10548000000000000000000000000000000000001C
:10549000000000000000000000000000000000000C
:1054A00000000000000000000000000000000000FC
:1054B00000000000000000000000000000000000EC
:1054C00000000000000000000000000000000000DC
:1054D00000000000000000000000000000000000CC
:1054E00000000000000000000000000000000000BC
:1054F00000000000000000000000000000000000AC
:10550000000000000000000000000000000000009B
:10551000000000000000000000000000000000008B
:10552000000000000000000000000000000000007B
:10553000000000000000000000000000000000006B
:10554000000000000000000000000000000000005B
:10555000000000000000000000000000000000004B
:1055600000000000000000000000007FF01DC000EF
:10557000000000000000000000001FFFFFFF00000F
:10558000000000000000000000001FFFFFFFF0000F
:10559000000000000000000000001F803FFFFFC06F
:1055A000000000000000000000001E8388FFE000F3
:1055B0000000000000000000000078C0001FF8009C
:1055C00000000000000000000000F1E20003E6001F
:1055D00000000000000000000001F1F80000600081
:1055E00000000000000000000003418F0C001800C4
:1055F0000000000000000000000600038C0007808F
:105600000001FFFF80000800000C0200F800000FFE
:10561000C03FFFFFF0183000000E400030000000D7
:105620000000FFFFFFE1C000000F8000300000001D
:1056300000003FFFFFFF0040000780002000040043
:105640000000103FFFFE1E00000000005FFDFF0095
:10565000007FF000FFFFE000000000007FEFFF8010
:1056600000FFF0000000000000000000401C0000EF
:105670000000100000000000000000007018000092
:1056800001801800000000000000000060300000F1
:10569000018018000000000000000001807E000072
:1056A000F1C01C000000000000000007FFFDF5FE37
:1056B0000FFFEE000000000000000028FBE80E00D5
:1056C00000100F80000000000000007E01080000B4
:1056D000000C070E00000000000001E001100000B7
:1056E000000303FF0000000000000700011000009D
:1056F000000041CF0000000000003C0001900000CD
:10570000000011E3800000000001F80000A000008C
:10571000000007E1C00000000007E00000E000001A
:10572000000003E0E0000000001F000000E00000B7
:10573000000001E0700000000000000000E0000038
:10574000000000E03C0000000000000000C000007D
:10575000000000E00FC000000000000000C00000DA
:10576000000000E007E000000000000000800000F2
:105770000000007000E00000000000000180000058
:105780000000007000000000000000000180000028
:10579000000000780000000000000000038000000E
:1057A000000003C000000000000000001F00000017
:1057B00000000F0000000000000000003E0000009C
:1057C00000001F00000000000000000000000000BA
:1057D00000000000000000000000000000000000C9
:1057E00000000000000000000000000000000000B9
:1057F00000000000000000000000000000000000A9
:105800000000000000000000000000000000000098
:105810000000000000000000000000000000000088
:105820000000000000000000000000000000000078
:105830000000000000000000000000000000000068
:105840000000000000000000000000000000000058
:105850000000000000000000000000000000000048
:105860000000000000000000000000000000000038
:105870000000000000000000000000000000000028
:105880000000000000000000000000000000000018
:105890000000000000000000000000000000000008
:1058A00000000000000000000000000000000000F8
:1058B00000000000000000000000000000000000E8
:1058C00000000000000000000000000000000000D8
:1058D00000000000000000000000000000000000C8
:1058E00000000000000000000000000000000000B8
:1058F00000000000000000000000000000000000A8
:105900000000000000000000000000000000000097
:105910000000000000000000000000000000000087
:105920000000000000000000000000000000000077
:105930000000000000000000000000000000000067
:105940000000000000000000000000000000000057
:105950000000000000000000000000000000000047
:105960000000000000000000000003FFF000000045
:10597000000000000000000000000FFFFF8000009A
:10598000000000000000000000001FFFFFFFF0000B
:10599000000000000000000000001FFFFFFFF000FB
:1059A000000000000000000000001E383FFFFE0065
:1059B00000000000000000000000700000FF888070
:1059C00000000000000000000000F1E00C5FC000DB
:1059D00000000000000000000001F1F01C4B8000FE
:1059E0000000000000000000000381BC0C0040002B
:1059F00000000000000000000000023F000218004C
:105A00001F800007F800000000181807D8000100E8
:105A10001001FFFFFF800000001C0000F8000008DC
:105A2000100027FFFFE00000001F0000744A10284C
:105A30001488007FFFFC000000060000200000002A
:105A400000001018FFFFF000000000002800000018
:105A5000000010000007F000000000004858000897
:105A60001600100000000000000000004C5B081C45
:105A70003690100000000000000000004C72091871
:105A80001790000000000000000000007C300008BB
:105A90000300000000000000000000007830000358
:105AA0001F80030000000000000000004C3E00C00A
:105AB00000400018000000000000000080FFC0004F
:105AC000000F801C00000000000000010B1080008F
